{
  "_format": "hh-sol-artifact-1",
  "contractName": "VolunteerBadge",
  "sourceName": "contracts/VolunteerBadge.sol",
  "abi": [
    {
      "inputs": [],
      "stateMutability": "nonpayable",
      "type": "constructor"
    },
    {
      "inputs": [
        {
          "internalType": "address",
          "name": "sender",
          "type": "address"
        },
        {
          "internalType": "uint256",
          "name": "tokenId",
          "type": "uint256"
        },
        {
          "internalType": "address",
          "name": "owner",
          "type": "address"
        }
      ],
      "name": "ERC721IncorrectOwner",
      "type": "error"
    },
    {
      "inputs": [
        {
          "internalType": "address",
          "name": "operator",
          "type": "address"
        },
        {
          "internalType": "uint256",
          "name": "tokenId",
          "type": "uint256"
        }
      ],
      "name": "ERC721InsufficientApproval",
      "type": "error"
    },
    {
      "inputs": [
        {
          "internalType": "address",
          "name": "approver",
          "type": "address"
        }
      ],
      "name": "ERC721InvalidApprover",
      "type": "error"
    },
    {
      "inputs": [
        {
          "internalType": "address",
          "name": "operator",
          "type": "address"
        }
      ],
      "name": "ERC721InvalidOperator",
      "type": "error"
    },
    {
      "inputs": [
        {
          "internalType": "address",
          "name": "owner",
          "type": "address"
        }
      ],
      "name": "ERC721InvalidOwner",
      "type": "error"
    },
    {
      "inputs": [
        {
          "internalType": "address",
          "name": "receiver",
          "type": "address"
        }
      ],
      "name": "ERC721InvalidReceiver",
      "type": "error"
    },
    {
      "inputs": [
        {
          "internalType": "address",
          "name": "sender",
          "type": "address"
        }
      ],
      "name": "ERC721InvalidSender",
      "type": "error"
    },
    {
      "inputs": [
        {
          "internalType": "uint256",
          "name": "tokenId",
          "type": "uint256"
        }
      ],
      "name": "ERC721NonexistentToken",
      "type": "error"
    },
    {
      "inputs": [
        {
          "internalType": "address",
          "name": "owner",
          "type": "address"
        }
      ],
      "name": "OwnableInvalidOwner",
      "type": "error"
    },
    {
      "inputs": [
        {
          "internalType": "address",
          "name": "account",
          "type": "address"
        }
      ],
      "name": "OwnableUnauthorizedAccount",
      "type": "error"
    },
    {
      "anonymous": false,
      "inputs": [
        {
          "indexed": true,
          "internalType": "address",
          "name": "owner",
          "type": "address"
        },
        {
          "indexed": true,
          "internalType": "address",
          "name": "approved",
          "type": "address"
        },
        {
          "indexed": true,
          "internalType": "uint256",
          "name": "tokenId",
          "type": "uint256"
        }
      ],
      "name": "Approval",
      "type": "event"
    },
    {
      "anonymous": false,
      "inputs": [
        {
          "indexed": true,
          "internalType": "address",
          "name": "owner",
          "type": "address"
        },
        {
          "indexed": true,
          "internalType": "address",
          "name": "operator",
          "type": "address"
        },
        {
          "indexed": false,
          "internalType": "bool",
          "name": "approved",
          "type": "bool"
        }
      ],
      "name": "ApprovalForAll",
      "type": "event"
    },
    {
      "anonymous": false,
      "inputs": [
        {
          "indexed": true,
          "internalType": "address",
          "name": "previousOwner",
          "type": "address"
        },
        {
          "indexed": true,
          "internalType": "address",
          "name": "newOwner",
          "type": "address"
        }
      ],
      "name": "OwnershipTransferred",
      "type": "event"
    },
    {
      "anonymous": false,
      "inputs": [
        {
          "indexed": true,
          "internalType": "address",
          "name": "from",
          "type": "address"
        },
        {
          "indexed": true,
          "internalType": "address",
          "name": "to",
          "type": "address"
        },
        {
          "indexed": true,
          "internalType": "uint256",
          "name": "tokenId",
          "type": "uint256"
        }
      ],
      "name": "Transfer",
      "type": "event"
    },
    {
      "inputs": [
        {
          "internalType": "address",
          "name": "to",
          "type": "address"
        },
        {
          "internalType": "uint256",
          "name": "tokenId",
          "type": "uint256"
        }
      ],
      "name": "approve",
      "outputs": [],
      "stateMutability": "nonpayable",
      "type": "function"
    },
    {
      "inputs": [
        {
          "internalType": "address",
          "name": "owner",
          "type": "address"
        }
      ],
      "name": "balanceOf",
      "outputs": [
        {
          "internalType": "uint256",
          "name": "",
          "type": "uint256"
        }
      ],
      "stateMutability": "view",
      "type": "function"
    },
    {
      "inputs": [
        {
          "internalType": "uint256",
          "name": "tokenId",
          "type": "uint256"
        }
      ],
      "name": "getApproved",
      "outputs": [
        {
          "internalType": "address",
          "name": "",
          "type": "address"
        }
      ],
      "stateMutability": "view",
      "type": "function"
    },
    {
      "inputs": [
        {
          "internalType": "address",
          "name": "",
          "type": "address"
        }
      ],
      "name": "highestLevel",
      "outputs": [
        {
          "internalType": "uint8",
          "name": "",
          "type": "uint8"
        }
      ],
      "stateMutability": "view",
      "type": "function"
    },
    {
      "inputs": [
        {
          "internalType": "address",
          "name": "owner",
          "type": "address"
        },
        {
          "internalType": "address",
          "name": "operator",
          "type": "address"
        }
      ],
      "name": "isApprovedForAll",
      "outputs": [
        {
          "internalType": "bool",
          "name": "",
          "type": "bool"
        }
      ],
      "stateMutability": "view",
      "type": "function"
    },
    {
      "inputs": [
        {
          "internalType": "uint8",
          "name": "",
          "type": "uint8"
        }
      ],
      "name": "levelTokenURI",
      "outputs": [
        {
          "internalType": "string",
          "name": "",
          "type": "string"
        }
      ],
      "stateMutability": "view",
      "type": "function"
    },
    {
      "inputs": [
        {
          "internalType": "address",
          "name": "user",
          "type": "address"
        },
        {
          "internalType": "uint8",
          "name": "level",
          "type": "uint8"
        }
      ],
      "name": "mintIfHigherLevel",
      "outputs": [
        {
          "internalType": "uint256",
          "name": "tokenId",
          "type": "uint256"
        }
      ],
      "stateMutability": "nonpayable",
      "type": "function"
    },
    {
      "inputs": [
        {
          "internalType": "address",
          "name": "",
          "type": "address"
        }
      ],
      "name": "minters",
      "outputs": [
        {
          "internalType": "bool",
          "name": "",
          "type": "bool"
        }
      ],
      "stateMutability": "view",
      "type": "function"
    },
    {
      "inputs": [],
      "name": "name",
      "outputs": [
        {
          "internalType": "string",
          "name": "",
          "type": "string"
        }
      ],
      "stateMutability": "view",
      "type": "function"
    },
    {
      "inputs": [],
      "name": "nextTokenId",
      "outputs": [
        {
          "internalType": "uint256",
          "name": "",
          "type": "uint256"
        }
      ],
      "stateMutability": "view",
      "type": "function"
    },
    {
      "inputs": [],
      "name": "owner",
      "outputs": [
        {
          "internalType": "address",
          "name": "",
          "type": "address"
        }
      ],
      "stateMutability": "view",
      "type": "function"
    },
    {
      "inputs": [
        {
          "internalType": "uint256",
          "name": "tokenId",
          "type": "uint256"
        }
      ],
      "name": "ownerOf",
      "outputs": [
        {
          "internalType": "address",
          "name": "",
          "type": "address"
        }
      ],
      "stateMutability": "view",
      "type": "function"
    },
    {
      "inputs": [],
      "name": "renounceOwnership",
      "outputs": [],
      "stateMutability": "nonpayable",
      "type": "function"
    },
    {
      "inputs": [
        {
          "internalType": "address",
          "name": "from",
          "type": "address"
        },
        {
          "internalType": "address",
          "name": "to",
          "type": "address"
        },
        {
          "internalType": "uint256",
          "name": "tokenId",
          "type": "uint256"
        }
      ],
      "name": "safeTransferFrom",
      "outputs": [],
      "stateMutability": "nonpayable",
      "type": "function"
    },
    {
      "inputs": [
        {
          "internalType": "address",
          "name": "from",
          "type": "address"
        },
        {
          "internalType": "address",
          "name": "to",
          "type": "address"
        },
        {
          "internalType": "uint256",
          "name": "tokenId",
          "type": "uint256"
        },
        {
          "internalType": "bytes",
          "name": "data",
          "type": "bytes"
        }
      ],
      "name": "safeTransferFrom",
      "outputs": [],
      "stateMutability": "nonpayable",
      "type": "function"
    },
    {
      "inputs": [
        {
          "internalType": "address",
          "name": "operator",
          "type": "address"
        },
        {
          "internalType": "bool",
          "name": "approved",
          "type": "bool"
        }
      ],
      "name": "setApprovalForAll",
      "outputs": [],
      "stateMutability": "nonpayable",
      "type": "function"
    },
    {
      "inputs": [
        {
          "internalType": "uint8",
          "name": "level",
          "type": "uint8"
        },
        {
          "internalType": "string",
          "name": "uri",
          "type": "string"
        }
      ],
      "name": "setLevelTokenURI",
      "outputs": [],
      "stateMutability": "nonpayable",
      "type": "function"
    },
    {
      "inputs": [
        {
          "internalType": "address",
          "name": "account",
          "type": "address"
        },
        {
          "internalType": "bool",
          "name": "allowed",
          "type": "bool"
        }
      ],
      "name": "setMinter",
      "outputs": [],
      "stateMutability": "nonpayable",
      "type": "function"
    },
    {
      "inputs": [
        {
          "internalType": "bytes4",
          "name": "interfaceId",
          "type": "bytes4"
        }
      ],
      "name": "supportsInterface",
      "outputs": [
        {
          "internalType": "bool",
          "name": "",
          "type": "bool"
        }
      ],
      "stateMutability": "view",
      "type": "function"
    },
    {
      "inputs": [],
      "name": "symbol",
      "outputs": [
        {
          "internalType": "string",
          "name": "",
          "type": "string"
        }
      ],
      "stateMutability": "view",
      "type": "function"
    },
    {
      "inputs": [
        {
          "internalType": "uint256",
          "name": "tokenId",
          "type": "uint256"
        }
      ],
      "name": "tokenURI",
      "outputs": [
        {
          "internalType": "string",
          "name": "",
          "type": "string"
        }
      ],
      "stateMutability": "view",
      "type": "function"
    },
    {
      "inputs": [
        {
          "internalType": "address",
          "name": "from",
          "type": "address"
        },
        {
          "internalType": "address",
          "name": "to",
          "type": "address"
        },
        {
          "internalType": "uint256",
          "name": "tokenId",
          "type": "uint256"
        }
      ],
      "name": "transferFrom",
      "outputs": [],
      "stateMutability": "nonpayable",
      "type": "function"
    },
    {
      "inputs": [
        {
          "internalType": "address",
          "name": "newOwner",
          "type": "address"
        }
      ],
      "name": "transferOwnership",
      "outputs": [],
      "stateMutability": "nonpayable",
      "type": "function"
    }
  ],
  "bytecode": "0x60806040523480156200001157600080fd5b50336040518060400160405280600e81526020016d566f6c756e74656572426164676560901b815250604051806040016040528060038152602001622b282160e91b8152508160009081620000679190620001b3565b506001620000768282620001b3565b5050506001600160a01b038116620000a857604051631e4fbdf760e01b81526000600482015260240160405180910390fd5b620000b381620000ba565b506200027f565b600680546001600160a01b038381166001600160a01b0319831681179093556040519116919082907f8be0079c531659141344cd1fd0a4f28419497f9722a3daafe3b4186f6b6457e090600090a35050565b634e487b7160e01b600052604160045260246000fd5b600181811c908216806200013757607f821691505b6020821081036200015857634e487b7160e01b600052602260045260246000fd5b50919050565b601f821115620001ae576000816000526020600020601f850160051c81016020861015620001895750805b601f850160051c820191505b81811015620001aa5782815560010162000195565b5050505b505050565b81516001600160401b03811115620001cf57620001cf6200010c565b620001e781620001e0845462000122565b846200015e565b602080601f8311600181146200021f5760008415620002065750858301515b600019600386901b1c1916600185901b178555620001aa565b600085815260208120601f198616915b8281101562000250578886015182559484019460019091019084016200022f565b50858210156200026f5787850151600019600388901b60f8161c191681555b5050505050600190811b01905550565b611465806200028f6000396000f3fe608060405234801561001057600080fd5b506004361061014d5760003560e01c80638da5cb5b116100c3578063c87b56dd1161007c578063c87b56dd146102d4578063cf456ae7146102e7578063e985e9c5146102fa578063f2fde38b1461030d578063f4282e0114610320578063f46eccc41461033357600080fd5b80638da5cb5b1461024d57806393a9fc3b1461025e57806395d89b41146102935780639fa266c61461029b578063a22cb465146102ae578063b88d4fde146102c157600080fd5b8063256a2f2a11610115578063256a2f2a146101e257806342842e0e146102035780636352211e1461021657806370a0823114610229578063715018a61461023c57806375794a3c1461024457600080fd5b806301ffc9a71461015257806306fdde031461017a578063081812fc1461018f578063095ea7b3146101ba57806323b872dd146101cf575b600080fd5b610165610160366004610eff565b610356565b60405190151581526020015b60405180910390f35b6101826103a8565b6040516101719190610f69565b6101a261019d366004610f7c565b61043a565b6040516001600160a01b039091168152602001610171565b6101cd6101c8366004610fb1565b610463565b005b6101cd6101dd366004610fdb565b610472565b6101f56101f0366004611028565b610502565b604051908152602001610171565b6101cd610211366004610fdb565b6105db565b6101a2610224366004610f7c565b6105fb565b6101f561023736600461105b565b610606565b6101cd61064e565b6101f560075481565b6006546001600160a01b03166101a2565b61028161026c36600461105b565b60086020526000908152604090205460ff1681565b60405160ff9091168152602001610171565b610182610662565b6101826102a9366004611076565b610671565b6101cd6102bc366004611091565b61070b565b6101cd6102cf3660046110e3565b610716565b6101826102e2366004610f7c565b61072e565b6101cd6102f5366004611091565b61086b565b6101656103083660046111bf565b61089e565b6101cd61031b36600461105b565b6108cc565b6101cd61032e3660046111e9565b61090a565b61016561034136600461105b565b600a6020526000908152604090205460ff1681565b60006001600160e01b031982166380ac58cd60e01b148061038757506001600160e01b03198216635b5e139f60e01b145b806103a257506301ffc9a760e01b6001600160e01b03198316145b92915050565b6060600080546103b79061126c565b80601f01602080910402602001604051908101604052809291908181526020018280546103e39061126c565b80156104305780601f1061040557610100808354040283529160200191610430565b820191906000526020600020905b81548152906001019060200180831161041357829003601f168201915b5050505050905090565b60006104458261092f565b506000828152600460205260409020546001600160a01b03166103a2565b61046e828233610968565b5050565b6001600160a01b0382166104a157604051633250574960e11b8152600060048201526024015b60405180910390fd5b60006104ae838333610975565b9050836001600160a01b0316816001600160a01b0316146104fc576040516364283d7b60e01b81526001600160a01b0380861660048301526024820184905282166044820152606401610498565b50505050565b336000908152600a602052604081205460ff168061052a57506006546001600160a01b031633145b6105675760405162461bcd60e51b815260206004820152600e60248201526d139bdd08185d5d1a1bdc9a5e995960921b6044820152606401610498565b6001600160a01b03831660009081526008602052604090205460ff90811690831611610595575060006103a2565b6001600160a01b0383166000908152600860205260408120805460ff191660ff8516179055600780549091906105ca906112a6565b918290555090506103a28382610a6e565b6105f683838360405180602001604052806000815250610716565b505050565b60006103a28261092f565b60006001600160a01b038216610632576040516322718ad960e21b815260006004820152602401610498565b506001600160a01b031660009081526003602052604090205490565b610656610ad3565b6106606000610b00565b565b6060600180546103b79061126c565b6009602052600090815260409020805461068a9061126c565b80601f01602080910402602001604051908101604052809291908181526020018280546106b69061126c565b80156107035780601f106106d857610100808354040283529160200191610703565b820191906000526020600020905b8154815290600101906020018083116106e657829003601f168201915b505050505081565b61046e338383610b52565b610721848484610472565b6104fc3385858585610bf1565b6000818152600260205260409020546060906001600160a01b03166107835760405162461bcd60e51b815260206004820152600b60248201526a139bdb995e1a5cdd195b9d60aa1b6044820152606401610498565b6000828152600260209081526040808320546001600160a01b0316808452600883528184205460ff1684526009909252822080549192916107c39061126c565b80601f01602080910402602001604051908101604052809291908181526020018280546107ef9061126c565b801561083c5780601f106108115761010080835404028352916020019161083c565b820191906000526020600020905b81548152906001019060200180831161081f57829003601f168201915b5050505050905060008151116108615760405180602001604052806000815250610863565b805b949350505050565b610873610ad3565b6001600160a01b03919091166000908152600a60205260409020805460ff1916911515919091179055565b6001600160a01b03918216600090815260056020908152604080832093909416825291909152205460ff1690565b6108d4610ad3565b6001600160a01b0381166108fe57604051631e4fbdf760e01b815260006004820152602401610498565b61090781610b00565b50565b610912610ad3565b60ff831660009081526009602052604090206104fc828483611315565b6000818152600260205260408120546001600160a01b0316806103a257604051637e27328960e01b815260048101849052602401610498565b6105f68383836001610d1c565b6000828152600260205260408120546001600160a01b03908116908316156109a2576109a2818486610e22565b6001600160a01b038116156109e0576109bf600085600080610d1c565b6001600160a01b038116600090815260036020526040902080546000190190555b6001600160a01b03851615610a0f576001600160a01b0385166000908152600360205260409020805460010190555b60008481526002602052604080822080546001600160a01b0319166001600160a01b0389811691821790925591518793918516917fddf252ad1be2c89b69c2b068fc378daa952ba7f163c4a11628f55a4df523b3ef91a4949350505050565b6001600160a01b038216610a9857604051633250574960e11b815260006004820152602401610498565b6000610aa683836000610975565b90506001600160a01b038116156105f6576040516339e3563760e11b815260006004820152602401610498565b6006546001600160a01b031633146106605760405163118cdaa760e01b8152336004820152602401610498565b600680546001600160a01b038381166001600160a01b0319831681179093556040519116919082907f8be0079c531659141344cd1fd0a4f28419497f9722a3daafe3b4186f6b6457e090600090a35050565b6001600160a01b038216610b8457604051630b61174360e31b81526001600160a01b0383166004820152602401610498565b6001600160a01b03838116600081815260056020908152604080832094871680845294825291829020805460ff191686151590811790915591519182527f17307eab39ab6107e8899845ad3d59bd9653f200f220920489ca2b5937696c31910160405180910390a3505050565b6001600160a01b0383163b15610d1557604051630a85bd0160e11b81526001600160a01b0384169063150b7a0290610c339088908890879087906004016113d5565b6020604051808303816000875af1925050508015610c6e575060408051601f3d908101601f19168201909252610c6b91810190611412565b60015b610cd7573d808015610c9c576040519150601f19603f3d011682016040523d82523d6000602084013e610ca1565b606091505b508051600003610ccf57604051633250574960e11b81526001600160a01b0385166004820152602401610498565b805181602001fd5b6001600160e01b03198116630a85bd0160e11b14610d1357604051633250574960e11b81526001600160a01b0385166004820152602401610498565b505b5050505050565b8080610d3057506001600160a01b03821615155b15610df2576000610d408461092f565b90506001600160a01b03831615801590610d6c5750826001600160a01b0316816001600160a01b031614155b8015610d7f5750610d7d818461089e565b155b15610da85760405163a9fbf51f60e01b81526001600160a01b0384166004820152602401610498565b8115610df05783856001600160a01b0316826001600160a01b03167f8c5be1e5ebec7d5bd14f71427d1e84f3dd0314c0f7b2291e5b200ac8c7c3b92560405160405180910390a45b505b5050600090815260046020526040902080546001600160a01b0319166001600160a01b0392909216919091179055565b610e2d838383610e86565b6105f6576001600160a01b038316610e5b57604051637e27328960e01b815260048101829052602401610498565b60405163177e802f60e01b81526001600160a01b038316600482015260248101829052604401610498565b60006001600160a01b038316158015906108635750826001600160a01b0316846001600160a01b03161480610ec05750610ec0848461089e565b806108635750506000908152600460205260409020546001600160a01b03908116911614919050565b6001600160e01b03198116811461090757600080fd5b600060208284031215610f1157600080fd5b8135610f1c81610ee9565b9392505050565b6000815180845260005b81811015610f4957602081850181015186830182015201610f2d565b506000602082860101526020601f19601f83011685010191505092915050565b602081526000610f1c6020830184610f23565b600060208284031215610f8e57600080fd5b5035919050565b80356001600160a01b0381168114610fac57600080fd5b919050565b60008060408385031215610fc457600080fd5b610fcd83610f95565b946020939093013593505050565b600080600060608486031215610ff057600080fd5b610ff984610f95565b925061100760208501610f95565b9150604084013590509250925092565b803560ff81168114610fac57600080fd5b6000806040838503121561103b57600080fd5b61104483610f95565b915061105260208401611017565b90509250929050565b60006020828403121561106d57600080fd5b610f1c82610f95565b60006020828403121561108857600080fd5b610f1c82611017565b600080604083850312156110a457600080fd5b6110ad83610f95565b9150602083013580151581146110c257600080fd5b809150509250929050565b634e487b7160e01b600052604160045260246000fd5b600080600080608085870312156110f957600080fd5b61110285610f95565b935061111060208601610f95565b925060408501359150606085013567ffffffffffffffff8082111561113457600080fd5b818701915087601f83011261114857600080fd5b81358181111561115a5761115a6110cd565b604051601f8201601f19908116603f01168101908382118183101715611182576111826110cd565b816040528281528a602084870101111561119b57600080fd5b82602086016020830137600060208483010152809550505050505092959194509250565b600080604083850312156111d257600080fd5b6111db83610f95565b915061105260208401610f95565b6000806000604084860312156111fe57600080fd5b61120784611017565b9250602084013567ffffffffffffffff8082111561122457600080fd5b818601915086601f83011261123857600080fd5b81358181111561124757600080fd5b87602082850101111561125957600080fd5b6020830194508093505050509250925092565b600181811c9082168061128057607f821691505b6020821081036112a057634e487b7160e01b600052602260045260246000fd5b50919050565b6000600182016112c657634e487b7160e01b600052601160045260246000fd5b5060010190565b601f8211156105f6576000816000526020600020601f850160051c810160208610156112f65750805b601f850160051c820191505b81811015610d1357828155600101611302565b67ffffffffffffffff83111561132d5761132d6110cd565b6113418361133b835461126c565b836112cd565b6000601f841160018114611375576000851561135d5750838201355b600019600387901b1c1916600186901b178355610d15565b600083815260209020601f19861690835b828110156113a65786850135825560209485019460019092019101611386565b50868210156113c35760001960f88860031b161c19848701351681555b505060018560011b0183555050505050565b6001600160a01b038581168252841660208201526040810183905260806060820181905260009061140890830184610f23565b9695505050505050565b60006020828403121561142457600080fd5b8151610f1c81610ee956fea2646970667358221220e7692644adba7af9ec60ef089a80fa102079f52335dedff6ca0c4d03fc9a8fce64736f6c63430008180033",
  "linkReferences": {},
  "deployedLinkReferences": {}
}