{"contracts/VolunteerComment.sol":{"VolunteerComment":{"abi":[{"anonymous":false,"inputs":[{"indexed":true,"internalType":"uint256","name":"recordId","type":"uint256"},{"indexed":true,"internalType":"address","name":"user","type":"address"},{"indexed":false,"internalType":"string","name":"text","type":"string"}],"name":"Commented","type":"event"},{"inputs":[{"internalType":"uint256","name":"recordId","type":"uint256"},{"internalType":"string","name":"text","type":"string"}],"name":"addComment","outputs":[],"stateMutability":"nonpayable","type":"function"},{"inputs":[{"internalType":"uint256","name":"recordId","type":"uint256"}],"name":"getCount","outputs":[{"internalType":"uint256","name":"","type":"uint256"}],"stateMutability":"view","type":"function"},{"inputs":[{"internalType":"uint256","name":"recordId","type":"uint256"},{"internalType":"uint256","name":"start","type":"uint256"},{"internalType":"uint256","name":"count","type":"uint256"}],"name":"getWindow","outputs":[{"internalType":"address[]","name":"users","type":"address[]"},{"internalType":"string[]","name":"texts","type":"string[]"},{"internalType":"uint64[]","name":"timestamps","type":"uint64[]"}],"stateMutability":"view","type":"function"}],"devdoc":{"kind":"dev","methods":{},"version":1},"evm":{"bytecode":{"linkReferences":{},"object":"608060405234801561001057600080fd5b50610883806100206000396000f3fe608060405234801561001057600080fd5b50600436106100415760003560e01c8063aa7e568314610046578063c23539181461005b578063fcc3a5c51461008e575b600080fd5b61005961005436600461047b565b6100b0565b005b61007b6100693660046104f7565b60009081526020819052604090205490565b6040519081526020015b60405180910390f35b6100a161009c366004610510565b6101dd565b60405161008593929190610582565b6000808481526020019081526020016000206040518060600160405280336001600160a01b0316815260200184848080601f01602080910402602001604051908101604052809392919081815260200183838082843760009201829052509385525050504267ffffffffffffffff1660209283015283546001808201865594825290829020835160039092020180546001600160a01b0319166001600160a01b039092169190911781559082015191929091908201906101709082610706565b50604091820151600291909101805467ffffffffffffffff191667ffffffffffffffff90921691909117905551339084907f7c42a07debc7c62e7a9a8b400458d0240888de5a34a7e25338c082ed7ff828b1906101d090869086906107c6565b60405180910390a3505050565b6000838152602081905260408120606091829182916101fc868861080b565b825490915081111561020c575080545b600087821161021c576000610226565b6102268883610824565b90508067ffffffffffffffff81111561024157610241610665565b60405190808252806020026020018201604052801561026a578160200160208202803683370190505b5095508067ffffffffffffffff81111561028657610286610665565b6040519080825280602002602001820160405280156102b957816020015b60608152602001906001900390816102a45790505b5094508067ffffffffffffffff8111156102d5576102d5610665565b6040519080825280602002602001820160405280156102fe578160200160208202803683370190505b50935060005b8181101561046e57600084610319838c61080b565b8154811061032957610329610837565b60009182526020909120600390910201805489519192506001600160a01b03169089908490811061035c5761035c610837565b60200260200101906001600160a01b031690816001600160a01b03168152505080600101805461038b9061067b565b80601f01602080910402602001604051908101604052809291908181526020018280546103b79061067b565b80156104045780601f106103d957610100808354040283529160200191610404565b820191906000526020600020905b8154815290600101906020018083116103e757829003601f168201915b505050505087838151811061041b5761041b610837565b60209081029190910101526002810154865167ffffffffffffffff9091169087908490811061044c5761044c610837565b67ffffffffffffffff9092166020928302919091019091015250600101610304565b5050505093509350939050565b60008060006040848603121561049057600080fd5b83359250602084013567ffffffffffffffff808211156104af57600080fd5b818601915086601f8301126104c357600080fd5b8135818111156104d257600080fd5b8760208285010111156104e457600080fd5b6020830194508093505050509250925092565b60006020828403121561050957600080fd5b5035919050565b60008060006060848603121561052557600080fd5b505081359360208301359350604090920135919050565b60008151808452602080850194506020840160005b8381101561057757815167ffffffffffffffff1687529582019590820190600101610551565b509495945050505050565b606080825284519082018190526000906020906080840190828801845b828110156105c45781516001600160a01b03168452928401929084019060010161059f565b50505083810382850152855180825282820190600581901b8301840188850160005b8381101561064357601f19808785030186528251805180865260005b8181101561061d578281018b01518782018c01528a01610602565b5060008682018b015296890196601f0190911690930187019250908601906001016105e6565b50508681036040880152610657818961053c565b9a9950505050505050505050565b634e487b7160e01b600052604160045260246000fd5b600181811c9082168061068f57607f821691505b6020821081036106af57634e487b7160e01b600052602260045260246000fd5b50919050565b601f821115610701576000816000526020600020601f850160051c810160208610156106de5750805b601f850160051c820191505b818110156106fd578281556001016106ea565b5050505b505050565b815167ffffffffffffffff81111561072057610720610665565b6107348161072e845461067b565b846106b5565b602080601f83116001811461076957600084156107515750858301515b600019600386901b1c1916600185901b1785556106fd565b600085815260208120601f198616915b8281101561079857888601518255948401946001909101908401610779565b50858210156107b65787850151600019600388901b60f8161c191681555b5050505050600190811b01905550565b60208152816020820152818360408301376000818301604090810191909152601f909201601f19160101919050565b634e487b7160e01b600052601160045260246000fd5b8082018082111561081e5761081e6107f5565b92915050565b8181038181111561081e5761081e6107f5565b634e487b7160e01b600052603260045260246000fdfea2646970667358221220386a86c574a91de2a2a6d1194553988a2ad8cf8d077b6ed42e435198056d5c2a64736f6c63430008180033","opcodes":"PUSH1 0x80 PUSH1 0x40 MSTORE CALLVALUE DUP1 ISZERO PUSH2 0x10 JUMPI PUSH1 0x0 DUP1 REVERT JUMPDEST POP PUSH2 0x883 DUP1 PUSH2 0x20 PUSH1 0x0 CODECOPY PUSH1 0x0 RETURN INVALID PUSH1 0x80 PUSH1 0x40 MSTORE CALLVALUE DUP1 ISZERO PUSH2 0x10 JUMPI PUSH1 0x0 DUP1 REVERT JUMPDEST POP PUSH1 0x4 CALLDATASIZE LT PUSH2 0x41 JUMPI PUSH1 0x0 CALLDATALOAD PUSH1 0xE0 SHR DUP1 PUSH4 0xAA7E5683 EQ PUSH2 0x46 JUMPI DUP1 PUSH4 0xC2353918 EQ PUSH2 0x5B JUMPI DUP1 PUSH4 0xFCC3A5C5 EQ PUSH2 0x8E JUMPI JUMPDEST PUSH1 0x0 DUP1 REVERT JUMPDEST PUSH2 0x59 PUSH2 0x54 CALLDATASIZE PUSH1 0x4 PUSH2 0x47B JUMP JUMPDEST PUSH2 0xB0 JUMP JUMPDEST STOP JUMPDEST PUSH2 0x7B PUSH2 0x69 CALLDATASIZE PUSH1 0x4 PUSH2 0x4F7 JUMP JUMPDEST PUSH1 0x0 SWAP1 DUP2 MSTORE PUSH1 0x20 DUP2 SWAP1 MSTORE PUSH1 0x40 SWAP1 KECCAK256 SLOAD SWAP1 JUMP JUMPDEST PUSH1 0x40 MLOAD SWAP1 DUP2 MSTORE PUSH1 0x20 ADD JUMPDEST PUSH1 0x40 MLOAD DUP1 SWAP2 SUB SWAP1 RETURN JUMPDEST PUSH2 0xA1 PUSH2 0x9C CALLDATASIZE PUSH1 0x4 PUSH2 0x510 JUMP JUMPDEST PUSH2 0x1DD JUMP JUMPDEST PUSH1 0x40 MLOAD PUSH2 0x85 SWAP4 SWAP3 SWAP2 SWAP1 PUSH2 0x582 JUMP JUMPDEST PUSH1 0x0 DUP1 DUP5 DUP2 MSTORE PUSH1 0x20 ADD SWAP1 DUP2 MSTORE PUSH1 0x20 ADD PUSH1 0x0 KECCAK256 PUSH1 0x40 MLOAD DUP1 PUSH1 0x60 ADD PUSH1 0x40 MSTORE DUP1 CALLER PUSH1 0x1 PUSH1 0x1 PUSH1 0xA0 SHL SUB AND DUP2 MSTORE PUSH1 0x20 ADD DUP5 DUP5 DUP1 DUP1 PUSH1 0x1F ADD PUSH1 0x20 DUP1 SWAP2 DIV MUL PUSH1 0x20 ADD PUSH1 0x40 MLOAD SWAP1 DUP2 ADD PUSH1 0x40 MSTORE DUP1 SWAP4 SWAP3 SWAP2 SWAP1 DUP2 DUP2 MSTORE PUSH1 0x20 ADD DUP4 DUP4 DUP1 DUP3 DUP5 CALLDATACOPY PUSH1 0x0 SWAP3 ADD DUP3 SWAP1 MSTORE POP SWAP4 DUP6 MSTORE POP POP POP TIMESTAMP PUSH8 0xFFFFFFFFFFFFFFFF AND PUSH1 0x20 SWAP3 DUP4 ADD MSTORE DUP4 SLOAD PUSH1 0x1 DUP1 DUP3 ADD DUP7 SSTORE SWAP5 DUP3 MSTORE SWAP1 DUP3 SWAP1 KECCAK256 DUP4 MLOAD PUSH1 0x3 SWAP1 SWAP3 MUL ADD DUP1 SLOAD PUSH1 0x1 PUSH1 0x1 PUSH1 0xA0 SHL SUB NOT AND PUSH1 0x1 PUSH1 0x1 PUSH1 0xA0 SHL SUB SWAP1 SWAP3 AND SWAP2 SWAP1 SWAP2 OR DUP2 SSTORE SWAP1 DUP3 ADD MLOAD SWAP2 SWAP3 SWAP1 SWAP2 SWAP1 DUP3 ADD SWAP1 PUSH2 0x170 SWAP1 DUP3 PUSH2 0x706 JUMP JUMPDEST POP PUSH1 0x40 SWAP2 DUP3 ADD MLOAD PUSH1 0x2 SWAP2 SWAP1 SWAP2 ADD DUP1 SLOAD PUSH8 0xFFFFFFFFFFFFFFFF NOT AND PUSH8 0xFFFFFFFFFFFFFFFF SWAP1 SWAP3 AND SWAP2 SWAP1 SWAP2 OR SWAP1 SSTORE MLOAD CALLER SWAP1 DUP5 SWAP1 PUSH32 0x7C42A07DEBC7C62E7A9A8B400458D0240888DE5A34A7E25338C082ED7FF828B1 SWAP1 PUSH2 0x1D0 SWAP1 DUP7 SWAP1 DUP7 SWAP1 PUSH2 0x7C6 JUMP JUMPDEST PUSH1 0x40 MLOAD DUP1 SWAP2 SUB SWAP1 LOG3 POP POP POP JUMP JUMPDEST PUSH1 0x0 DUP4 DUP2 MSTORE PUSH1 0x20 DUP2 SWAP1 MSTORE PUSH1 0x40 DUP2 KECCAK256 PUSH1 0x60 SWAP2 DUP3 SWAP2 DUP3 SWAP2 PUSH2 0x1FC DUP7 DUP9 PUSH2 0x80B JUMP JUMPDEST DUP3 SLOAD SWAP1 SWAP2 POP DUP2 GT ISZERO PUSH2 0x20C JUMPI POP DUP1 SLOAD JUMPDEST PUSH1 0x0 DUP8 DUP3 GT PUSH2 0x21C JUMPI PUSH1 0x0 PUSH2 0x226 JUMP JUMPDEST PUSH2 0x226 DUP9 DUP4 PUSH2 0x824 JUMP JUMPDEST SWAP1 POP DUP1 PUSH8 0xFFFFFFFFFFFFFFFF DUP2 GT ISZERO PUSH2 0x241 JUMPI PUSH2 0x241 PUSH2 0x665 JUMP JUMPDEST PUSH1 0x40 MLOAD SWAP1 DUP1 DUP3 MSTORE DUP1 PUSH1 0x20 MUL PUSH1 0x20 ADD DUP3 ADD PUSH1 0x40 MSTORE DUP1 ISZERO PUSH2 0x26A JUMPI DUP2 PUSH1 0x20 ADD PUSH1 0x20 DUP3 MUL DUP1 CALLDATASIZE DUP4 CALLDATACOPY ADD SWAP1 POP JUMPDEST POP SWAP6 POP DUP1 PUSH8 0xFFFFFFFFFFFFFFFF DUP2 GT ISZERO PUSH2 0x286 JUMPI PUSH2 0x286 PUSH2 0x665 JUMP JUMPDEST PUSH1 0x40 MLOAD SWAP1 DUP1 DUP3 MSTORE DUP1 PUSH1 0x20 MUL PUSH1 0x20 ADD DUP3 ADD PUSH1 0x40 MSTORE DUP1 ISZERO PUSH2 0x2B9 JUMPI DUP2 PUSH1 0x20 ADD JUMPDEST PUSH1 0x60 DUP2 MSTORE PUSH1 0x20 ADD SWAP1 PUSH1 0x1 SWAP1 SUB SWAP1 DUP2 PUSH2 0x2A4 JUMPI SWAP1 POP JUMPDEST POP SWAP5 POP DUP1 PUSH8 0xFFFFFFFFFFFFFFFF DUP2 GT ISZERO PUSH2 0x2D5 JUMPI PUSH2 0x2D5 PUSH2 0x665 JUMP JUMPDEST PUSH1 0x40 MLOAD SWAP1 DUP1 DUP3 MSTORE DUP1 PUSH1 0x20 MUL PUSH1 0x20 ADD DUP3 ADD PUSH1 0x40 MSTORE DUP1 ISZERO PUSH2 0x2FE JUMPI DUP2 PUSH1 0x20 ADD PUSH1 0x20 DUP3 MUL DUP1 CALLDATASIZE DUP4 CALLDATACOPY ADD SWAP1 POP JUMPDEST POP SWAP4 POP PUSH1 0x0 JUMPDEST DUP2 DUP2 LT ISZERO PUSH2 0x46E JUMPI PUSH1 0x0 DUP5 PUSH2 0x319 DUP4 DUP13 PUSH2 0x80B JUMP JUMPDEST DUP2 SLOAD DUP2 LT PUSH2 0x329 JUMPI PUSH2 0x329 PUSH2 0x837 JUMP JUMPDEST PUSH1 0x0 SWAP2 DUP3 MSTORE PUSH1 0x20 SWAP1 SWAP2 KECCAK256 PUSH1 0x3 SWAP1 SWAP2 MUL ADD DUP1 SLOAD DUP10 MLOAD SWAP2 SWAP3 POP PUSH1 0x1 PUSH1 0x1 PUSH1 0xA0 SHL SUB AND SWAP1 DUP10 SWAP1 DUP5 SWAP1 DUP2 LT PUSH2 0x35C JUMPI PUSH2 0x35C PUSH2 0x837 JUMP JUMPDEST PUSH1 0x20 MUL PUSH1 0x20 ADD ADD SWAP1 PUSH1 0x1 PUSH1 0x1 PUSH1 0xA0 SHL SUB AND SWAP1 DUP2 PUSH1 0x1 PUSH1 0x1 PUSH1 0xA0 SHL SUB AND DUP2 MSTORE POP POP DUP1 PUSH1 0x1 ADD DUP1 SLOAD PUSH2 0x38B SWAP1 PUSH2 0x67B JUMP JUMPDEST DUP1 PUSH1 0x1F ADD PUSH1 0x20 DUP1 SWAP2 DIV MUL PUSH1 0x20 ADD PUSH1 0x40 MLOAD SWAP1 DUP2 ADD PUSH1 0x40 MSTORE DUP1 SWAP3 SWAP2 SWAP1 DUP2 DUP2 MSTORE PUSH1 0x20 ADD DUP3 DUP1 SLOAD PUSH2 0x3B7 SWAP1 PUSH2 0x67B JUMP JUMPDEST DUP1 ISZERO PUSH2 0x404 JUMPI DUP1 PUSH1 0x1F LT PUSH2 0x3D9 JUMPI PUSH2 0x100 DUP1 DUP4 SLOAD DIV MUL DUP4 MSTORE SWAP2 PUSH1 0x20 ADD SWAP2 PUSH2 0x404 JUMP JUMPDEST DUP3 ADD SWAP2 SWAP1 PUSH1 0x0 MSTORE PUSH1 0x20 PUSH1 0x0 KECCAK256 SWAP1 JUMPDEST DUP2 SLOAD DUP2 MSTORE SWAP1 PUSH1 0x1 ADD SWAP1 PUSH1 0x20 ADD DUP1 DUP4 GT PUSH2 0x3E7 JUMPI DUP3 SWAP1 SUB PUSH1 0x1F AND DUP3 ADD SWAP2 JUMPDEST POP POP POP POP POP DUP8 DUP4 DUP2 MLOAD DUP2 LT PUSH2 0x41B JUMPI PUSH2 0x41B PUSH2 0x837 JUMP JUMPDEST PUSH1 0x20 SWAP1 DUP2 MUL SWAP2 SWAP1 SWAP2 ADD ADD MSTORE PUSH1 0x2 DUP2 ADD SLOAD DUP7 MLOAD PUSH8 0xFFFFFFFFFFFFFFFF SWAP1 SWAP2 AND SWAP1 DUP8 SWAP1 DUP5 SWAP1 DUP2 LT PUSH2 0x44C JUMPI PUSH2 0x44C PUSH2 0x837 JUMP JUMPDEST PUSH8 0xFFFFFFFFFFFFFFFF SWAP1 SWAP3 AND PUSH1 0x20 SWAP3 DUP4 MUL SWAP2 SWAP1 SWAP2 ADD SWAP1 SWAP2 ADD MSTORE POP PUSH1 0x1 ADD PUSH2 0x304 JUMP JUMPDEST POP POP POP POP SWAP4 POP SWAP4 POP SWAP4 SWAP1 POP JUMP JUMPDEST PUSH1 0x0 DUP1 PUSH1 0x0 PUSH1 0x40 DUP5 DUP7 SUB SLT ISZERO PUSH2 0x490 JUMPI PUSH1 0x0 DUP1 REVERT JUMPDEST DUP4 CALLDATALOAD SWAP3 POP PUSH1 0x20 DUP5 ADD CALLDATALOAD PUSH8 0xFFFFFFFFFFFFFFFF DUP1 DUP3 GT ISZERO PUSH2 0x4AF JUMPI PUSH1 0x0 DUP1 REVERT JUMPDEST DUP2 DUP7 ADD SWAP2 POP DUP7 PUSH1 0x1F DUP4 ADD SLT PUSH2 0x4C3 JUMPI PUSH1 0x0 DUP1 REVERT JUMPDEST DUP2 CALLDATALOAD DUP2 DUP2 GT ISZERO PUSH2 0x4D2 JUMPI PUSH1 0x0 DUP1 REVERT JUMPDEST DUP8 PUSH1 0x20 DUP3 DUP6 ADD ADD GT ISZERO PUSH2 0x4E4 JUMPI PUSH1 0x0 DUP1 REVERT JUMPDEST PUSH1 0x20 DUP4 ADD SWAP5 POP DUP1 SWAP4 POP POP POP POP SWAP3 POP SWAP3 POP SWAP3 JUMP JUMPDEST PUSH1 0x0 PUSH1 0x20 DUP3 DUP5 SUB SLT ISZERO PUSH2 0x509 JUMPI PUSH1 0x0 DUP1 REVERT JUMPDEST POP CALLDATALOAD SWAP2 SWAP1 POP JUMP JUMPDEST PUSH1 0x0 DUP1 PUSH1 0x0 PUSH1 0x60 DUP5 DUP7 SUB SLT ISZERO PUSH2 0x525 JUMPI PUSH1 0x0 DUP1 REVERT JUMPDEST POP POP DUP2 CALLDATALOAD SWAP4 PUSH1 0x20 DUP4 ADD CALLDATALOAD SWAP4 POP PUSH1 0x40 SWAP1 SWAP3 ADD CALLDATALOAD SWAP2 SWAP1 POP JUMP JUMPDEST PUSH1 0x0 DUP2 MLOAD DUP1 DUP5 MSTORE PUSH1 0x20 DUP1 DUP6 ADD SWAP5 POP PUSH1 0x20 DUP5 ADD PUSH1 0x0 JUMPDEST DUP4 DUP2 LT ISZERO PUSH2 0x577 JUMPI DUP2 MLOAD PUSH8 0xFFFFFFFFFFFFFFFF AND DUP8 MSTORE SWAP6 DUP3 ADD SWAP6 SWAP1 DUP3 ADD SWAP1 PUSH1 0x1 ADD PUSH2 0x551 JUMP JUMPDEST POP SWAP5 SWAP6 SWAP5 POP POP POP POP POP JUMP JUMPDEST PUSH1 0x60 DUP1 DUP3 MSTORE DUP5 MLOAD SWAP1 DUP3 ADD DUP2 SWAP1 MSTORE PUSH1 0x0 SWAP1 PUSH1 0x20 SWAP1 PUSH1 0x80 DUP5 ADD SWAP1 DUP3 DUP9 ADD DUP5 JUMPDEST DUP3 DUP2 LT ISZERO PUSH2 0x5C4 JUMPI DUP2 MLOAD PUSH1 0x1 PUSH1 0x1 PUSH1 0xA0 SHL SUB AND DUP5 MSTORE SWAP3 DUP5 ADD SWAP3 SWAP1 DUP5 ADD SWAP1 PUSH1 0x1 ADD PUSH2 0x59F JUMP JUMPDEST POP POP POP DUP4 DUP2 SUB DUP3 DUP6 ADD MSTORE DUP6 MLOAD DUP1 DUP3 MSTORE DUP3 DUP3 ADD SWAP1 PUSH1 0x5 DUP2 SWAP1 SHL DUP4 ADD DUP5 ADD DUP9 DUP6 ADD PUSH1 0x0 JUMPDEST DUP4 DUP2 LT ISZERO PUSH2 0x643 JUMPI PUSH1 0x1F NOT DUP1 DUP8 DUP6 SUB ADD DUP7 MSTORE DUP3 MLOAD DUP1 MLOAD DUP1 DUP7 MSTORE PUSH1 0x0 JUMPDEST DUP2 DUP2 LT ISZERO PUSH2 0x61D JUMPI DUP3 DUP2 ADD DUP12 ADD MLOAD DUP8 DUP3 ADD DUP13 ADD MSTORE DUP11 ADD PUSH2 0x602 JUMP JUMPDEST POP PUSH1 0x0 DUP7 DUP3 ADD DUP12 ADD MSTORE SWAP7 DUP10 ADD SWAP7 PUSH1 0x1F ADD SWAP1 SWAP2 AND SWAP1 SWAP4 ADD DUP8 ADD SWAP3 POP SWAP1 DUP7 ADD SWAP1 PUSH1 0x1 ADD PUSH2 0x5E6 JUMP JUMPDEST POP POP DUP7 DUP2 SUB PUSH1 0x40 DUP9 ADD MSTORE PUSH2 0x657 DUP2 DUP10 PUSH2 0x53C JUMP JUMPDEST SWAP11 SWAP10 POP POP POP POP POP POP POP POP POP POP JUMP JUMPDEST PUSH4 0x4E487B71 PUSH1 0xE0 SHL PUSH1 0x0 MSTORE PUSH1 0x41 PUSH1 0x4 MSTORE PUSH1 0x24 PUSH1 0x0 REVERT JUMPDEST PUSH1 0x1 DUP2 DUP2 SHR SWAP1 DUP3 AND DUP1 PUSH2 0x68F JUMPI PUSH1 0x7F DUP3 AND SWAP2 POP JUMPDEST PUSH1 0x20 DUP3 LT DUP2 SUB PUSH2 0x6AF JUMPI PUSH4 0x4E487B71 PUSH1 0xE0 SHL PUSH1 0x0 MSTORE PUSH1 0x22 PUSH1 0x4 MSTORE PUSH1 0x24 PUSH1 0x0 REVERT JUMPDEST POP SWAP2 SWAP1 POP JUMP JUMPDEST PUSH1 0x1F DUP3 GT ISZERO PUSH2 0x701 JUMPI PUSH1 0x0 DUP2 PUSH1 0x0 MSTORE PUSH1 0x20 PUSH1 0x0 KECCAK256 PUSH1 0x1F DUP6 ADD PUSH1 0x5 SHR DUP2 ADD PUSH1 0x20 DUP7 LT ISZERO PUSH2 0x6DE JUMPI POP DUP1 JUMPDEST PUSH1 0x1F DUP6 ADD PUSH1 0x5 SHR DUP3 ADD SWAP2 POP JUMPDEST DUP2 DUP2 LT ISZERO PUSH2 0x6FD JUMPI DUP3 DUP2 SSTORE PUSH1 0x1 ADD PUSH2 0x6EA JUMP JUMPDEST POP POP POP JUMPDEST POP POP POP JUMP JUMPDEST DUP2 MLOAD PUSH8 0xFFFFFFFFFFFFFFFF DUP2 GT ISZERO PUSH2 0x720 JUMPI PUSH2 0x720 PUSH2 0x665 JUMP JUMPDEST PUSH2 0x734 DUP2 PUSH2 0x72E DUP5 SLOAD PUSH2 0x67B JUMP JUMPDEST DUP5 PUSH2 0x6B5 JUMP JUMPDEST PUSH1 0x20 DUP1 PUSH1 0x1F DUP4 GT PUSH1 0x1 DUP2 EQ PUSH2 0x769 JUMPI PUSH1 0x0 DUP5 ISZERO PUSH2 0x751 JUMPI POP DUP6 DUP4 ADD MLOAD JUMPDEST PUSH1 0x0 NOT PUSH1 0x3 DUP7 SWAP1 SHL SHR NOT AND PUSH1 0x1 DUP6 SWAP1 SHL OR DUP6 SSTORE PUSH2 0x6FD JUMP JUMPDEST PUSH1 0x0 DUP6 DUP2 MSTORE PUSH1 0x20 DUP2 KECCAK256 PUSH1 0x1F NOT DUP7 AND SWAP2 JUMPDEST DUP3 DUP2 LT ISZERO PUSH2 0x798 JUMPI DUP9 DUP7 ADD MLOAD DUP3 SSTORE SWAP5 DUP5 ADD SWAP5 PUSH1 0x1 SWAP1 SWAP2 ADD SWAP1 DUP5 ADD PUSH2 0x779 JUMP JUMPDEST POP DUP6 DUP3 LT ISZERO PUSH2 0x7B6 JUMPI DUP8 DUP6 ADD MLOAD PUSH1 0x0 NOT PUSH1 0x3 DUP9 SWAP1 SHL PUSH1 0xF8 AND SHR NOT AND DUP2 SSTORE JUMPDEST POP POP POP POP POP PUSH1 0x1 SWAP1 DUP2 SHL ADD SWAP1 SSTORE POP JUMP JUMPDEST PUSH1 0x20 DUP2 MSTORE DUP2 PUSH1 0x20 DUP3 ADD MSTORE DUP2 DUP4 PUSH1 0x40 DUP4 ADD CALLDATACOPY PUSH1 0x0 DUP2 DUP4 ADD PUSH1 0x40 SWAP1 DUP2 ADD SWAP2 SWAP1 SWAP2 MSTORE PUSH1 0x1F SWAP1 SWAP3 ADD PUSH1 0x1F NOT AND ADD ADD SWAP2 SWAP1 POP JUMP JUMPDEST PUSH4 0x4E487B71 PUSH1 0xE0 SHL PUSH1 0x0 MSTORE PUSH1 0x11 PUSH1 0x4 MSTORE PUSH1 0x24 PUSH1 0x0 REVERT JUMPDEST DUP1 DUP3 ADD DUP1 DUP3 GT ISZERO PUSH2 0x81E JUMPI PUSH2 0x81E PUSH2 0x7F5 JUMP JUMPDEST SWAP3 SWAP2 POP POP JUMP JUMPDEST DUP2 DUP2 SUB DUP2 DUP2 GT ISZERO PUSH2 0x81E JUMPI PUSH2 0x81E PUSH2 0x7F5 JUMP JUMPDEST PUSH4 0x4E487B71 PUSH1 0xE0 SHL PUSH1 0x0 MSTORE PUSH1 0x32 PUSH1 0x4 MSTORE PUSH1 0x24 PUSH1 0x0 REVERT INVALID LOG2 PUSH5 0x6970667358 0x22 SLT KECCAK256 CODESIZE PUSH11 0x86C574A91DE2A2A6D11945 MSTORE8 SWAP9 DUP11 0x2A 0xD8 0xCF DUP14 SMOD PUSH28 0x6ED42E435198056D5C2A64736F6C6343000818003300000000000000 "},"gasEstimates":{"creation":{"codeDepositCost":"435800","executionCost":"474","totalCost":"436274"},"external":{"addComment(uint256,string)":"infinite","getCount(uint256)":"2430","getWindow(uint256,uint256,uint256)":"infinite"}},"methodIdentifiers":{"addComment(uint256,string)":"aa7e5683","getCount(uint256)":"c2353918","getWindow(uint256,uint256,uint256)":"fcc3a5c5"}},"storageLayout":{"storage":[{"astId":14,"contract":"contracts/VolunteerComment.sol:VolunteerComment","label":"_comments","offset":0,"slot":"0","type":"t_mapping(t_uint256,t_array(t_struct(Comment)8_storage)dyn_storage)"}],"types":{"t_address":{"encoding":"inplace","label":"address","numberOfBytes":"20"},"t_array(t_struct(Comment)8_storage)dyn_storage":{"base":"t_struct(Comment)8_storage","encoding":"dynamic_array","label":"struct VolunteerComment.Comment[]","numberOfBytes":"32"},"t_mapping(t_uint256,t_array(t_struct(Comment)8_storage)dyn_storage)":{"encoding":"mapping","key":"t_uint256","label":"mapping(uint256 => struct VolunteerComment.Comment[])","numberOfBytes":"32","value":"t_array(t_struct(Comment)8_storage)dyn_storage"},"t_string_storage":{"encoding":"bytes","label":"string","numberOfBytes":"32"},"t_struct(Comment)8_storage":{"encoding":"inplace","label":"struct VolunteerComment.Comment","members":[{"astId":3,"contract":"contracts/VolunteerComment.sol:VolunteerComment","label":"user","offset":0,"slot":"0","type":"t_address"},{"astId":5,"contract":"contracts/VolunteerComment.sol:VolunteerComment","label":"text","offset":0,"slot":"1","type":"t_string_storage"},{"astId":7,"contract":"contracts/VolunteerComment.sol:VolunteerComment","label":"timestamp","offset":0,"slot":"2","type":"t_uint64"}],"numberOfBytes":"96"},"t_uint256":{"encoding":"inplace","label":"uint256","numberOfBytes":"32"},"t_uint64":{"encoding":"inplace","label":"uint64","numberOfBytes":"8"}}},"userdoc":{"kind":"user","methods":{},"version":1}}}}