{"contracts/VolunteerLike.sol":{"VolunteerLike":{"abi":[{"anonymous":false,"inputs":[{"indexed":true,"internalType":"uint256","name":"recordId","type":"uint256"},{"indexed":true,"internalType":"address","name":"user","type":"address"},{"indexed":false,"internalType":"bool","name":"like","type":"bool"},{"indexed":false,"internalType":"uint256","name":"total","type":"uint256"}],"name":"Liked","type":"event"},{"inputs":[{"internalType":"uint256","name":"recordId","type":"uint256"},{"internalType":"address","name":"user","type":"address"}],"name":"getLike","outputs":[{"internalType":"bool","name":"","type":"bool"},{"internalType":"uint256","name":"","type":"uint256"}],"stateMutability":"view","type":"function"},{"inputs":[{"internalType":"uint256","name":"","type":"uint256"},{"internalType":"address","name":"","type":"address"}],"name":"liked","outputs":[{"internalType":"bool","name":"","type":"bool"}],"stateMutability":"view","type":"function"},{"inputs":[{"internalType":"uint256","name":"","type":"uint256"}],"name":"likes","outputs":[{"internalType":"uint256","name":"","type":"uint256"}],"stateMutability":"view","type":"function"},{"inputs":[{"internalType":"uint256","name":"recordId","type":"uint256"}],"name":"toggleLike","outputs":[{"internalType":"bool","name":"like","type":"bool"},{"internalType":"uint256","name":"total","type":"uint256"}],"stateMutability":"nonpayable","type":"function"}],"devdoc":{"kind":"dev","methods":{},"version":1},"evm":{"bytecode":{"linkReferences":{},"object":"608060405234801561001057600080fd5b5061031e806100206000396000f3fe608060405234801561001057600080fd5b506004361061004c5760003560e01c806302c427871461005157806354398d18146100945780637e9dffe6146100be5780639df77574146100ec575b600080fd5b61007f61005f366004610251565b600160209081526000928352604080842090915290825290205460ff1681565b60405190151581526020015b60405180910390f35b6100a76100a236600461028d565b610130565b60408051921515835260208301919091520161008b565b6100de6100cc36600461028d565b60006020819052908152604090205481565b60405190815260200161008b565b6100a76100fa366004610251565b60008281526001602090815260408083206001600160a01b0394909416835292815282822054938252819052205460ff90911691565b6000818152600160209081526040808320338452909152812054819060ff1680156101ac5760008481526001602090815260408083203384528252808320805460ff19169055868352908290529020548061018c576000610197565b6101976001826102bc565b600086815260208190526040902055506101ef565b60008481526001602081815260408084203385528252808420805460ff1916841790558784529083905282208054919290916101e99084906102d5565b90915550505b600084815260208181526040918290205482518415815291820152339186917ff64872bc5caf1365f420ea1c84412850819a322d0626f5084645479b7c0c5627910160405180910390a360009384526020849052604090932054921593915050565b6000806040838503121561026457600080fd5b8235915060208301356001600160a01b038116811461028257600080fd5b809150509250929050565b60006020828403121561029f57600080fd5b5035919050565b634e487b7160e01b600052601160045260246000fd5b818103818111156102cf576102cf6102a6565b92915050565b808201808211156102cf576102cf6102a656fea2646970667358221220ae0c5ba03ca8dad52378608fc6a8cc11829cdbb949d1531cf7c483024d27efd464736f6c63430008180033","opcodes":"PUSH1 0x80 PUSH1 0x40 MSTORE CALLVALUE DUP1 ISZERO PUSH2 0x10 JUMPI PUSH1 0x0 DUP1 REVERT JUMPDEST POP PUSH2 0x31E DUP1 PUSH2 0x20 PUSH1 0x0 CODECOPY PUSH1 0x0 RETURN INVALID PUSH1 0x80 PUSH1 0x40 MSTORE CALLVALUE DUP1 ISZERO PUSH2 0x10 JUMPI PUSH1 0x0 DUP1 REVERT JUMPDEST POP PUSH1 0x4 CALLDATASIZE LT PUSH2 0x4C JUMPI PUSH1 0x0 CALLDATALOAD PUSH1 0xE0 SHR DUP1 PUSH4 0x2C42787 EQ PUSH2 0x51 JUMPI DUP1 PUSH4 0x54398D18 EQ PUSH2 0x94 JUMPI DUP1 PUSH4 0x7E9DFFE6 EQ PUSH2 0xBE JUMPI DUP1 PUSH4 0x9DF77574 EQ PUSH2 0xEC JUMPI JUMPDEST PUSH1 0x0 DUP1 REVERT JUMPDEST PUSH2 0x7F PUSH2 0x5F CALLDATASIZE PUSH1 0x4 PUSH2 0x251 JUMP JUMPDEST PUSH1 0x1 PUSH1 0x20 SWAP1 DUP2 MSTORE PUSH1 0x0 SWAP3 DUP4 MSTORE PUSH1 0x40 DUP1 DUP5 KECCAK256 SWAP1 SWAP2 MSTORE SWAP1 DUP3 MSTORE SWAP1 KECCAK256 SLOAD PUSH1 0xFF AND DUP2 JUMP JUMPDEST PUSH1 0x40 MLOAD SWAP1 ISZERO ISZERO DUP2 MSTORE PUSH1 0x20 ADD JUMPDEST PUSH1 0x40 MLOAD DUP1 SWAP2 SUB SWAP1 RETURN JUMPDEST PUSH2 0xA7 PUSH2 0xA2 CALLDATASIZE PUSH1 0x4 PUSH2 0x28D JUMP JUMPDEST PUSH2 0x130 JUMP JUMPDEST PUSH1 0x40 DUP1 MLOAD SWAP3 ISZERO ISZERO DUP4 MSTORE PUSH1 0x20 DUP4 ADD SWAP2 SWAP1 SWAP2 MSTORE ADD PUSH2 0x8B JUMP JUMPDEST PUSH2 0xDE PUSH2 0xCC CALLDATASIZE PUSH1 0x4 PUSH2 0x28D JUMP JUMPDEST PUSH1 0x0 PUSH1 0x20 DUP2 SWAP1 MSTORE SWAP1 DUP2 MSTORE PUSH1 0x40 SWAP1 KECCAK256 SLOAD DUP2 JUMP JUMPDEST PUSH1 0x40 MLOAD SWAP1 DUP2 MSTORE PUSH1 0x20 ADD PUSH2 0x8B JUMP JUMPDEST PUSH2 0xA7 PUSH2 0xFA CALLDATASIZE PUSH1 0x4 PUSH2 0x251 JUMP JUMPDEST PUSH1 0x0 DUP3 DUP2 MSTORE PUSH1 0x1 PUSH1 0x20 SWAP1 DUP2 MSTORE PUSH1 0x40 DUP1 DUP4 KECCAK256 PUSH1 0x1 PUSH1 0x1 PUSH1 0xA0 SHL SUB SWAP5 SWAP1 SWAP5 AND DUP4 MSTORE SWAP3 DUP2 MSTORE DUP3 DUP3 KECCAK256 SLOAD SWAP4 DUP3 MSTORE DUP2 SWAP1 MSTORE KECCAK256 SLOAD PUSH1 0xFF SWAP1 SWAP2 AND SWAP2 JUMP JUMPDEST PUSH1 0x0 DUP2 DUP2 MSTORE PUSH1 0x1 PUSH1 0x20 SWAP1 DUP2 MSTORE PUSH1 0x40 DUP1 DUP4 KECCAK256 CALLER DUP5 MSTORE SWAP1 SWAP2 MSTORE DUP2 KECCAK256 SLOAD DUP2 SWAP1 PUSH1 0xFF AND DUP1 ISZERO PUSH2 0x1AC JUMPI PUSH1 0x0 DUP5 DUP2 MSTORE PUSH1 0x1 PUSH1 0x20 SWAP1 DUP2 MSTORE PUSH1 0x40 DUP1 DUP4 KECCAK256 CALLER DUP5 MSTORE DUP3 MSTORE DUP1 DUP4 KECCAK256 DUP1 SLOAD PUSH1 0xFF NOT AND SWAP1 SSTORE DUP7 DUP4 MSTORE SWAP1 DUP3 SWAP1 MSTORE SWAP1 KECCAK256 SLOAD DUP1 PUSH2 0x18C JUMPI PUSH1 0x0 PUSH2 0x197 JUMP JUMPDEST PUSH2 0x197 PUSH1 0x1 DUP3 PUSH2 0x2BC JUMP JUMPDEST PUSH1 0x0 DUP7 DUP2 MSTORE PUSH1 0x20 DUP2 SWAP1 MSTORE PUSH1 0x40 SWAP1 KECCAK256 SSTORE POP PUSH2 0x1EF JUMP JUMPDEST PUSH1 0x0 DUP5 DUP2 MSTORE PUSH1 0x1 PUSH1 0x20 DUP2 DUP2 MSTORE PUSH1 0x40 DUP1 DUP5 KECCAK256 CALLER DUP6 MSTORE DUP3 MSTORE DUP1 DUP5 KECCAK256 DUP1 SLOAD PUSH1 0xFF NOT AND DUP5 OR SWAP1 SSTORE DUP8 DUP5 MSTORE SWAP1 DUP4 SWAP1 MSTORE DUP3 KECCAK256 DUP1 SLOAD SWAP2 SWAP3 SWAP1 SWAP2 PUSH2 0x1E9 SWAP1 DUP5 SWAP1 PUSH2 0x2D5 JUMP JUMPDEST SWAP1 SWAP2 SSTORE POP POP JUMPDEST PUSH1 0x0 DUP5 DUP2 MSTORE PUSH1 0x20 DUP2 DUP2 MSTORE PUSH1 0x40 SWAP2 DUP3 SWAP1 KECCAK256 SLOAD DUP3 MLOAD DUP5 ISZERO DUP2 MSTORE SWAP2 DUP3 ADD MSTORE CALLER SWAP2 DUP7 SWAP2 PUSH32 0xF64872BC5CAF1365F420EA1C84412850819A322D0626F5084645479B7C0C5627 SWAP2 ADD PUSH1 0x40 MLOAD DUP1 SWAP2 SUB SWAP1 LOG3 PUSH1 0x0 SWAP4 DUP5 MSTORE PUSH1 0x20 DUP5 SWAP1 MSTORE PUSH1 0x40 SWAP1 SWAP4 KECCAK256 SLOAD SWAP3 ISZERO SWAP4 SWAP2 POP POP JUMP JUMPDEST PUSH1 0x0 DUP1 PUSH1 0x40 DUP4 DUP6 SUB SLT ISZERO PUSH2 0x264 JUMPI PUSH1 0x0 DUP1 REVERT JUMPDEST DUP3 CALLDATALOAD SWAP2 POP PUSH1 0x20 DUP4 ADD CALLDATALOAD PUSH1 0x1 PUSH1 0x1 PUSH1 0xA0 SHL SUB DUP2 AND DUP2 EQ PUSH2 0x282 JUMPI PUSH1 0x0 DUP1 REVERT JUMPDEST DUP1 SWAP2 POP POP SWAP3 POP SWAP3 SWAP1 POP JUMP JUMPDEST PUSH1 0x0 PUSH1 0x20 DUP3 DUP5 SUB SLT ISZERO PUSH2 0x29F JUMPI PUSH1 0x0 DUP1 REVERT JUMPDEST POP CALLDATALOAD SWAP2 SWAP1 POP JUMP JUMPDEST PUSH4 0x4E487B71 PUSH1 0xE0 SHL PUSH1 0x0 MSTORE PUSH1 0x11 PUSH1 0x4 MSTORE PUSH1 0x24 PUSH1 0x0 REVERT JUMPDEST DUP2 DUP2 SUB DUP2 DUP2 GT ISZERO PUSH2 0x2CF JUMPI PUSH2 0x2CF PUSH2 0x2A6 JUMP JUMPDEST SWAP3 SWAP2 POP POP JUMP JUMPDEST DUP1 DUP3 ADD DUP1 DUP3 GT ISZERO PUSH2 0x2CF JUMPI PUSH2 0x2CF PUSH2 0x2A6 JUMP INVALID LOG2 PUSH5 0x6970667358 0x22 SLT KECCAK256 0xAE 0xC JUMPDEST LOG0 EXTCODECOPY 0xA8 0xDA 0xD5 0x23 PUSH25 0x608FC6A8CC11829CDBB949D1531CF7C483024D27EFD464736F PUSH13 0x63430008180033000000000000 "},"gasEstimates":{"creation":{"codeDepositCost":"159600","executionCost":"202","totalCost":"159802"},"external":{"getLike(uint256,address)":"4860","liked(uint256,address)":"2566","likes(uint256)":"2463","toggleLike(uint256)":"57760"}},"methodIdentifiers":{"getLike(uint256,address)":"9df77574","liked(uint256,address)":"02c42787","likes(uint256)":"7e9dffe6","toggleLike(uint256)":"54398d18"}},"storageLayout":{"storage":[{"astId":5,"contract":"contracts/VolunteerLike.sol:VolunteerLike","label":"likes","offset":0,"slot":"0","type":"t_mapping(t_uint256,t_uint256)"},{"astId":11,"contract":"contracts/VolunteerLike.sol:VolunteerLike","label":"liked","offset":0,"slot":"1","type":"t_mapping(t_uint256,t_mapping(t_address,t_bool))"}],"types":{"t_address":{"encoding":"inplace","label":"address","numberOfBytes":"20"},"t_bool":{"encoding":"inplace","label":"bool","numberOfBytes":"1"},"t_mapping(t_address,t_bool)":{"encoding":"mapping","key":"t_address","label":"mapping(address => bool)","numberOfBytes":"32","value":"t_bool"},"t_mapping(t_uint256,t_mapping(t_address,t_bool))":{"encoding":"mapping","key":"t_uint256","label":"mapping(uint256 => mapping(address => bool))","numberOfBytes":"32","value":"t_mapping(t_address,t_bool)"},"t_mapping(t_uint256,t_uint256)":{"encoding":"mapping","key":"t_uint256","label":"mapping(uint256 => uint256)","numberOfBytes":"32","value":"t_uint256"},"t_uint256":{"encoding":"inplace","label":"uint256","numberOfBytes":"32"}}},"userdoc":{"kind":"user","methods":{},"version":1}}}}